:020000040000FA
:1000000070180020652500006D250000D103000058
:100010007125000073250000752500000000000018
:100020000000000000000000000000005D03000070
:100030007925000000000000850300002107000072
:100040007F25000081250000832500008525000014
:1000500087250000892500008B2500008D250000E4
:100060008F250000912500009325000095250000B4
:1000700097250000992500009B2500009D25000084
:100080009F250000A1250000A3250000A525000054
:10009000A7250000A9250000AB250000AD25000024
:1000A000AF250000B1250000B3250000B5250000F4
:1000B000B7250000B9250000BB250000BD250000C4
:1000C000BF250000C1250000C3250000C525000094
:1000D000C7250000C9250000CB250000CD25000064
:1000E000CF250000D125000000000000D32500002E
:1000F000D5250000D7250000D9250000DB2500000C
:10010000DD250000DF250000E1250000E3250000DB
:100110000000000000000000E5250000E7250000C9
:10012000E9250000EB250000ED250000EF2500008B
:10013000F1250000F3250000F5250000F72500005B
:1001400000000000000000000000000000000000AF
:10015000F9250000FB250000FD250000FF2500001B
:10016000000000000000000000000000000000008F
:10017000000000000000000000000000000000007F
:10018000000000000000000000000000000000006F
:10019000000000000000000000000000000000005F
:1001A000000000000000000000000000000000004F
:1001B0000126000003260000052600000726000097
:1001C000092600000B2600000D2600000F26000067
:1001D0001126000013260000152600001726000037
:1001E000192600001B2600001D260000000000004C
:1001F000000000001F26000021260000232600002A
:100200002526000027260000000000000000000056
:10021000292600002B2600002D2600002F26000096
:100220003126000033260000352600003726000066
:10023000392600003B2600003D2600003F26000036
:100240004126000043260000452600004726000006
:10025000492600004B2600004D2600004F260000D6
:1002600051260000532600005526000000F002F839
:1002700000F064F80AA090E8000C82448344AAF1DC
:100280000107DA4501D100F059F8AFF2090EBAE8DA
:100290000F0013F0010F18BFFB1A43F001031847BA
:1002A00048290000682900000A444FF0000C10F8AB
:1002B000013B13F0070408BF10F8014B1D1108BFE4
:1002C00010F8015B641E05D010F8016B641E01F884
:1002D000016BF9D113F0080F1EBF10F8014BAD1CD4
:1002E0000C1B09D16D1E58BF01F801CBFAD505E0F2
:1002F00014F8016B01F8016B6D1EF9D59142D6D34C
:10030000704700000023002400250026103A28BF73
:1003100078C1FBD8520728BF30C148BF0B60704777
:10032000642902F08B82732902F0978300207047C2
:100330001FB502F019FC1FBD10B510BD02F0E4FBA3
:100340001146FFF7F5FF01F067FC02F002FC03B471
:10035000FFF7F2FF03BC00F06FF8000072B61EF06A
:10036000040F0CBFEFF30880EFF309800449C1F8D4
:1003700000E000F07AF90249D1F800E062B6704777
:100380001C00002072B6EFF309801EF0100F08BFAA
:1003900020ED108A7246EFF3148320E9FC0F0A491E
:1003A0000A681060094C24680C602068B0E8FC0FF3
:1003B000964683F314881EF0100F08BFB0EC108A25
:1003C00080F3098862B670471800002034000020CE
:1003D0001EF0040F0CBFEFF30880EFF3098000F06C
:1003E000C1B9000010B50446144804701448012136
:1003F00042691248904710BD10B54FF080704069B7
:10040000816B10488847C0B210BD70B504460D46D8
:10041000E0B2FFF7E7FF204670BD10B50446FFF7D6
:10042000EBFF10BD01464FF0FF30704710B504469A
:10043000E0B2FFF7D7FF10BD00BFFEE708000020C5
:10044000B02B000000C000403048006840F02000A1
:100450002E4908602E48006840F00E002C490860C4
:100460002C48006840F00E002A4908607047014699
:1004700021B1012904D0022906D103E0022003E0C2
:10048000082001E0042000BF00BF72B6204A121FFE
:1004900012684240204BC3F8FC2362B67047014605
:1004A00021B1012904D0022906D103E0022003E092
:1004B000082001E0042000BF00BF154A121F126887
:1004C0004240154BC3F8FC237047002005E0134958
:1004D0000968491C114A1160401C11498842F6D331
:1004E000704710B50F488168204688470D4801695C
:1004F000022088470B484FF4E131826A012090477F
:1005000008480121826A1520904710BD08E60F4077
:10051000005402401C550240005002400C000020D4
:1005200055581400B02B0000244800687047234839
:100530000068401C402801D1012070471F48006816
:10054000401C1E4908600020F7E71C48006808B9F5
:100550000120704719480068401E184908600020B3
:10056000F7E710B50446204602F0C8F93D2801D946
:10057000012010BD1249114A126801EB8210214678
:1005800002F098F9FFF7D3FF08B10120F1E700204E
:10059000EFE710B500240CE0094800EB841109A036
:1005A00002F0E2F8064901EB8410402102F0C5F99F
:1005B000641CFFF7CAFF0028EED010BD1000002019
:1005C0001C02002025730A0D0000000010B5002851
:1005D00007DA4A07140E644A00F00F031B1FD454B5
:1005E00003E04A07130E614A135410BD002060490E
:1005F000086062B6704701205D49086072B67047B6
:1006000010B5FFF7F8FF5848001F006840F400706D
:100610005549091F08604FF08071896F086980474C
:10062000FFF7E4FF00F068FC08B100BFFEE7002020
:1006300010BD01204F49086000DF002070474D4881
:10064000006870474C480068704701DF704710B57C
:100650000446204602DF10BD43481438006840F0CD
:100660008050414914390860704770B50546A86943
:1006700010F8026C01203E49086026B1012E3AD0E4
:10068000022E46D142E03D4800683D4908600846D8
:100690000068006800683B490860394909680968D2
:1006A00001F1280080F3098800BFFF216FF00100ED
:1006B000FFF78CFF4FF47A54601EB0F1807F01D3B6
:1006C00001200FE0601E4FF0E021486107214FF04C
:1006D000FF30FFF77BFF00204FF0E021886107200B
:1006E0000861002000B100BE032080F3148800BF21
:1006F000BFF36F8F0FE022480068204909688842E5
:1007000001D0FFF7A9FFBFF36F8F04E0BFF36F8F36
:1007100001E000BE00BF00BF00201549086070BDA9
:1007200010B5FFF768FF14480068401C12490860C4
:1007300015480068401C14490860A0F23A7010B1D6
:1007400096280BD103E00220FFF7A9FE06E0002067
:100750000D4908600220FFF7A2FE00BF00BFFFF7AF
:1007600045FF10BD00BE704718ED00E000E400E05A
:10077000240000202000002014000020340000206D
:10078000180000201C000020280000205A480068A3
:1007900010B15948006870470020FCE701465748EF
:1007A00008E00268126A0B6A9A4200DC05E00268FF
:1007B00002F128000268002AF3D100BF02688A62B1
:1007C00001604F4A1268521C4D4B1A60704730B599
:1007D00004460D460CB9002030BDA06810F1030F8F
:1007E00002DBA068032801DD0020F5E7424800682D
:1007F00060624148046043480068401C4149086009
:10080000A0682062002084F84400E062E063206475
:10081000A063A062E1682068084448382060D4E9F9
:10082000001008644FF08070216848646FF0020087
:10083000216808600320216848602046FFF7AEFF6A
:100840002046C9E72D4805E000B100E000BF01687F
:1008500001F1280001680029F6D1704701462748B8
:1008600006E002688A4200D105E0026802F1280031
:100870000268002AF5D100BF026842B18A6A0260AC
:1008800000228A621E4A1268521E1D4B1A6070476F
:100890001D480068704701460020704710B5FFF7FB
:1008A000D4FE002010BD70B504460D460CB986205C
:1008B00070BD256294F8440040B92046FFF7CEFF92
:1008C0002046FFF76BFFFFF7C0FE0BE094F84400F3
:1008D000012807D12146E06A00F048F82146E06A85
:1008E00000F02CF80020E3E7014609B984207047A6
:1008F000086AFCE7704700002C000020340000204C
:10090000380000203000002018000020F94800685E
:1009100018B1F8480068806970476FF00200FBE783
:100920000146084606E0026802B100E000BF026826
:1009300002F134000268002AF5D1704710B5024672
:10094000104608E003681B6A0C6AA34200DC05E05D
:10095000036803F134000368002BF3D100BF036880
:100960004B63016053685B1C536010BD0246104628
:1009700006E003688B4200D105E0036803F1340010
:100980000368002BF5D100BF036833B14B6B0360E4
:1009900053685B1E53600023CB62704701460868B2
:1009A00008B9002070470A68506B08600020506347
:1009B000D0624868401E48601046F3E710B5002337
:1009C00003604360036181608261CB4B1B68C3603D
:1009D000C94B1860C94B1B685B1CC84C236010BD19
:1009E00002460021C348006808B900207047C1488A
:1009F000016804E0914201D10120F7E7096900296B
:100A0000F8D10020F2E710B5034600241846FFF79E
:100A1000E7FF08B1002010BDB6480068E8B1B5494D
:100A2000986909688969884205DBB24800681861DD
:100A3000B048036017E0AF48046808E0986921698E
:100A40008969884202DB2069186103E02469206912
:100A50000028F3D100BF236105E0A6480360002011
:100A6000A449096808610120D5E710B50346184676
:100A7000FFF7B6FF08B9002010BD9E48006883420A
:100A80000BD1186918B19B491869086002E0002071
:100A9000984908600020186114E0964804680DE049
:100AA0002069984209D1186910B11869206101E0E4
:100AB000002020610020186103E0246920690028DB
:100AC000EED100BF0120D7E710B50246086B08B988
:100AD0000A6318E0086B80699469A04203DA086B26
:100AE00050610A630FE00B6B08E0586980699469F4
:100AF000A04202DA5869506103E05B695869002836
:100B0000F3D100BF5A61012010BD03460A46106BA5
:100B100098420CD1106B406918B1106B406910639A
:100B200001E0002010630020586101207047116B24
:100B300010E0486998420CD14869406918B1486989
:100B40004069486101E000204861002058610120AF
:100B5000ECE749690029ECD10020E7E7F0B504464D
:100B60000D4616461F460CB98020F0BD0DB98020F9
:100B7000FBE7E56221462846FFF7E0FE0020F4E7A8
:100B80002DE9F04105460E4600BF0027B846FFF7A5
:100B90007FFE044615B9781EBDE8F081701C10B1C7
:100BA0004FF0FF30F8E7A868002870DD5148006872
:100BB00000285AD04F49206A09688969884208DCB0
:100BC000206BB8B14B4800688069216B8969884205
:100BD00010D12846FFF717FFEC61206B08B9206A97
:100BE000E06121462846FFF76FFFA868401EA86015
:100BF0000120D1E73F480068C069006A216A884245
:100C00000EDA3C49206A0968C969086239490968ED
:100C1000C869FFF723FE37490968C869FFF7BEFDB9
:100C2000012084F8440036480068FFF717FE4FF0B3
:100C3000FF331A4629462046FFF790FF10B14FF0C8
:100C4000FF30A9E7FFF701FD2846FFF7DCFEEC6166
:100C5000206B08B9206AE06121462846FFF734FF7F
:100C6000A868401EA860012096E72846FFF7CBFE43
:100C7000EC61206B08B9206AE06121462846FFF745
:100C800023FFA868401EA860012085E7FFE7E86908
:100C9000006A216A884208DA206AE9690862E8691C
:100CA000FFF7DCFDE869FFF779FD012084F84400D7
:100CB00013480068FFF7D2FD4FF0FF331A4629466C
:100CC0002046FFF74BFF10B14FF0FF3064E7FFF70E
:100CD000BCFC2846FFF797FEEC61206B08B9206A40
:100CE000E06121462846FFF7EFFEA868401EA86095
:100CF000012051E7440000203C000020400000207B
:100D00001800002070B50025FFF740FD044610E0F4
:100D100094F8440001280BD1E06A48B1E06AC06948
:100D200030B925B125B1206A296A884200DD2546FF
:100D3000646A002CECD10DB1284670BD0020FCE7A0
:100D400030B505466FF06304086B08B9C86930BD5B
:100D50000A6B09E0136804E0186AA04200DD1C6A0F
:100D60005B6B002BF8D15269002AF3D1C869A0420D
:100D700001DDC869EBE72046E9E770B50546FFF7F6
:100D800087FD06460DB9802070BD0120A8600020B7
:100D9000E8612846FFF769FE31462846FFF7B5FEB1
:100DA000A869316A884204DB31462846FFF7C8FF4C
:100DB00030623046FFF752FD3046FFF7EFFCFFF799
:100DC000A1FF04464CB12146E06AFFF7CFFD0020A9
:100DD00084F844002046FFF7E1FCFFF736FC0020D2
:100DE000D2E72DE9F84F044689464FF47A70A9FB03
:100DF000005006464FF0000A00200090FFF748FD23
:100E000083461CB94FF0FF30BDE8F88F09F10100AF
:100E100010B14FF0FF30F7E7A068401EA060002837
:100E200001DBA068F0E7B9F1000F02D14FF0FF300D
:100E3000EAE701208BF844002D480068FFF70EFD1B
:100E4000B9F1FF3F0AD14FF0FF331A462146584609
:100E5000FFF784FEF8B14FF0FF30D5E74FF47A7119
:100E60000022A5FB017306FB013105FB0211214A9B
:100E70000023384601F001FC8246FFF7E3FB5044B3
:100E80000090534621465846009AFFF767FE10B17E
:100E90004FF0FF30B8E7FFF7D8FBA068002801DA71
:100EA0000020B1E7A068AFE770B504460CB9802018
:100EB00070BDA068401CA060606808B90020F7E71A
:100EC0002046FFF76BFD0546002085F844002846C4
:100ED000FFF764FCFFF7B9FB0020E9E701460020BB
:100EE000704702460020704703460020704700000C
:100EF0001800002040420F0010B500210E48FFF7F7
:100F000066FC0E4908600846006810B94FF0FF30D3
:100F100010BD0020FCE704E009A001F025FC00BFA3
:100F2000FEE7F9E710B500F04AF80FA000F028F846
:100F300008B100BFFEE710BD48000020900000206F
:100F400069646C65207468726561642072756E6E88
:100F5000696E6720212121202054575056312020CE
:100F600053544F50210A0D007468726561644964DE
:100F70006C652064756D70656420747261636500D2
:100F800010B504464FF0FF3119480068FFF729FFFC
:100F9000401C80B12046FFF7E4FA08B100BFFEE72D
:100FA00013480068FFF780FF38B112A0FFF7D9FAA5
:100FB00018B100BFFEE700BFFEE7002010BD10B56E
:100FC0004FF0FF310A480068FFF70BFF401C60B18B
:100FD000FFF7DFFA06480068FFF766FF38B105A0A3
:100FE000FFF7BFFA18B100BFFEE700BFFEE710BD74
:100FF000940000202072656C656173652073656DD7
:1010000031206661696C000010B5012211460D485F
:10101000FFF7D4FC0C4908600846006810B94FF08F
:10102000FF3010BD09A001F09FFB0020F9E710B5CB
:1010300005480068FFF752FF10B14FF0FF3010BDB8
:101040000020FCE7C80F0020940000206372656157
:101050007465642073656D310A0D000010B50222BD
:1010600001210D48FFF7AAFC0C49086008460068FA
:1010700010B94FF0FF3010BD09A001F075FB002042
:10108000F9E710B505480068FFF728FF10B14FF0E9
:10109000FF3010BD0020FCE7E80F00209800002082
:1010A000637265617465642073656D320A0D0000BA
:1010B00010B500212E48FFF78AFB2E49086008462C
:1010C000006810B94FF0FF3010BD2BA001F04CFBB1
:1010D0000020F9E710B527480068FFF7DCFB10B1E6
:1010E0004FF0FF3010BD0020FCE770B50646FFF75B
:1010F000CFFB044625A0216A01F036FB2DA001F0AC
:1011000033FB4FF0FF3132480068FFF739FD00280C
:1011100028DB30A0216A01F027FBFFF7F7FB05462B
:10112000294638A001F020FB40A0216A01F01CFBF9
:101130004EA0216A01F018FB25480068FFF71DFE4C
:1011400056A0216A01F010FBFFF7E0FB0546294697
:101150002CA001F009FB6FF0020106480068FFF7C0
:10116000A2FB04E057A001F0FFFA00BFFEE770BD4C
:101170009C000020E40000206372656174656420B7
:10118000746872656164310A0D0000005461736B0C
:1011900020313A2048656C6C6F21202E204D79203B
:1011A0007072696F726974792069732025640A0D01
:1011B000000000005461736B20313A204C6F636B68
:1011C000696E672053657276657220320A0D0000E1
:1011D000980000205461736B20313A205365727679
:1011E00065722032206C6F636B6564202E204D7910
:1011F000207072696F726974792069732025640A9E
:101200000D0000005468652063757272656E74206D
:101210007072696F72697479206365696C696E6751
:101220002069732025640A0D000000005461736B6F
:1012300020313A204920616D20646F696E67207308
:101240006F6D657468696E6720696E20536572768C
:1012500065722032202E204D79207072696F72697C
:1012600074792069732025640A0D00005461736B42
:1012700020313A20756E6C6F636B20536572766512
:101280007232202E204D79207072696F72697479E4
:101290002069732025640A0D000000005461736BFF
:1012A00020313A20427965627965202E204D7920DF
:1012B0007072696F726974792069732025640A0DF0
:1012C000000000005461736B2031206661696C6519
:1012D0006420746F206C6F636B2053657276657247
:1012E0002032200A0D00000010B500212E48FFF723
:1012F0006EFA2E4908600846006810B94FF0FF30BA
:1013000010BD2BA001F030FA0020F9E710B52748F6
:101310000068FFF7C0FA10B14FF0FF3010BD002099
:10132000FCE770B50646FFF7B3FA044625A0216A2C
:1013300001F01AFAFFF7EAFA054629462BA001F058
:1013400013FA34A001F010FA4FF0FF31384800686A
:10135000FFF716FC002821DB36A0216A01F004FA11
:10136000FFF7D4FA0546294620A001F0FDF93DA07B
:10137000216A01F0F9F94BA0216A01F0F5F92C4836
:101380000068FFF7FAFC53A0216A01F0EDF96FF055
:10139000020106480068FFF786FA04E057A001F052
:1013A000E3F900BFFEE770BDE80000203001002037
:1013B0006372656174656420746872656164320A81
:1013C0000D0000005461736B20323A2048656C6C4C
:1013D0006F21202E204D79207072696F72697479A7
:1013E0002069732025640A0D000000005468652000
:1013F00063757272656E74207072696F7269747948
:10140000206365696C696E672069732025640A0D25
:10141000000000005461736B20323A204C6F636B04
:10142000696E672053657276657220310A0D00007F
:10143000940000205461736B20323A205365727619
:1014400065722031206C6F636B6564202E204D79AE
:10145000207072696F726974792069732025640A3B
:101460000D0000005461736B20323A204920616DF9
:1014700020646F696E6720736F6D657468696E674D
:1014800020696E2053657276657231202E204D7969
:10149000207072696F726974792069732025640AFB
:1014A0000D0000005461736B20323A20756E6C6F32
:1014B000636B2053657276657231202E204D792042
:1014C0007072696F726974792069732025640A0DDE
:1014D000000000005461736B20323A20427965426B
:1014E0007965202E204D79207072696F7269747948
:1014F0002069732025640A0D000000005461736B9D
:101500002032206661696C656420746F206C6F63A3
:101510006B205365727665722031200A0D00000041
:1015200010B500211F48FFF752F91F49086008460F
:10153000006810B94FF0FF3010BD1CA001F014F985
:101540000020F9E710B518480068FFF7A4F910B1BA
:101550004FF0FF3010BD0020FCE770B50646FFF7E6
:1015600097F9044616A0216A01F0FEF81EA0216A30
:1015700001F0FAF801212B480068FFF794F92AA03E
:10158000216A01F0F1F8FFF7C1F90546294630A0BC
:1015900001F0EAF86FF0020103480068FFF783F9F1
:1015A00070BD0000340100207C0100206372656181
:1015B00074656420746872656164330A0D0000000C
:1015C0005461736B20333A2048656C6C6F21202E78
:1015D000204D79207072696F726974792069732067
:1015E00025640A0D000000005461736B20333A201B
:1015F0004920646F206E6F74206C6F636B20616E86
:1016000079207265736F7572636521202E204D7984
:10161000207072696F726974792069732025640A79
:101620000D000000300100205461736B20333A201C
:10163000427965427965202E204D79207072696F5C
:10164000726974792069732025640A0D0000000016
:101650005468652063757272656E74207072696F6C
:1016600072697479206365696C696E67206973209B
:1016700025640A0D0000000010B50120FEF7F7FEFA
:1016800010BD10B500213E48FFF7A1F83D490860A4
:101690000846006810B94FF0FF3010BD3AA001F0C5
:1016A00063F80020F9E710B536480068FFF7F3F853
:1016B00010B14FF0FF3010BD0020FCE770B50546BB
:1016C000FFF7E6F8044635A0216A01F04DF83CA08A
:1016D00001F04AF84FF0FF3140480068FFF750FA38
:1016E000002847DB3EA0216A01F03EF8FFF70EF923
:1016F0000646314646A001F037F84FA0216A01F0B6
:1017000033F85DA0216A01F02FF84FF0FF316648F1
:101710000068FFF735FA002812DB64A0216A01F0A7
:1017200023F8FFF7F3F80646314639A001F01CF81C
:101730006AA0216A01F018F85B480068FFF71DFBFA
:1017400073A0216A01F010F824480068FFF715FB28
:10175000FFF7DCF8064631462DA001F005F879A028
:10176000216A01F001F86FF0020106480068FFF7F6
:101770009AF804E07DA000F0F7FF00BFFEE770BD1F
:1017800080010020C80100206372656174656420D7
:10179000746872656164340A0D0000005461736BF3
:1017A00020343A2048656C6C6F212E204D792070D2
:1017B00072696F726974792069732025640A0D005B
:1017C0005461736B20343A204C6F636B696E6720F1
:1017D00053657276657220320A0D00009800002071
:1017E0005461736B20343A205365727665722032EF
:1017F000206C6F636B6564202E204D7920707269B8
:101800006F726974792069732025640A0D000000E5
:101810005468652063757272656E74207072696FAA
:1018200072697479206365696C696E6720697320D9
:1018300025640A0D000000005461736B20343A20C7
:101840004920616D20646F696E6720736F6D6574E8
:1018500068696E6720696E20536572766572322002
:101860002E204D79207072696F72697479206973C6
:101870002025640A0D0000005461736B20343A2067
:101880004C6F636B696E67205365727665722031A9
:10189000202E204D79207072696F726974792069E9
:1018A000732025640A0D0000940000205461736BBE
:1018B00020343A205365727665722031206C6F6354
:1018C0006B656420202E204D79207072696F7269DB
:1018D00074792069732025640A0D00005461736BCC
:1018E00020343A20756E6C6F636B696E67205365A8
:1018F000727665722031202E204D79207072696FCA
:10190000726974792069732025640A0D0000000053
:101910005461736B20343A20756E6C6F636B696E23
:1019200067205365727665722032202E204D792013
:101930007072696F726974792069732025640A0D69
:10194000000000005461736B20343A2042796542F4
:101950007965202E204D79207072696F72697479D3
:101960002069732025640A0D000000005461736B28
:101970002034206661696C656420746F206C6F632D
:101980006B205365727665722032200A0D000000CC
:1019900010B50020FEF76BFD10BD10B500214048CA
:1019A000FEF715FF3F4908600846006810B94FF080
:1019B000FF3010BD3CA000F0D7FE0020F9E710B5C5
:1019C00038480068FEF767FF10B14FF0FF3010BDD8
:1019D0000020FCE770B50546FEF75AFF044637A025
:1019E000216A00F0C1FEFEF791FF064631463DA098
:1019F00000F0BAFE45A000F0B7FE4FF0FF314A48B4
:101A00000068FFF7BDF8002841DB48A0216A00F01C
:101A1000ABFEFEF77BFF0646314632A000F0A4FE87
:101A20004FF0FF314D480068FEF73DFF4CA0216AA2
:101A300000F09AFE002156480068FEF734FF48A0E7
:101A4000216A00F091FEFEF761FF0646314625A0AF
:101A500000F08AFE02214F480068FEF724FF40A0F4
:101A6000216A00F081FE4CA0216A00F07DFE2E4824
:101A70000068FFF782F954A0216A00F075FEFEF7B6
:101A800045FF0646314617A000F06EFE04E055A063
:101A900000F06AFE00BFFEE75BA000F065FE70BDCF
:101AA000D0010020CC010020637265617465642060
:101AB000746872656164350A0D0000005461736BCF
:101AC00020353A2048656C6C6F2120202E204D79FE
:101AD000207072696F726974792069732025640AB5
:101AE0000D0000005468652063757272656E742085
:101AF0007072696F72697479206365696C696E6769
:101B00002069732025640A0D000000005461736B86
:101B100020353A204C6F636B696E6720536572768F
:101B2000657220310A0D0000940000205461736B2F
:101B300020353A205365727665722031206C6F63D0
:101B40006B6564202E204D79207072696F72697404
:101B5000792069732025640A0D000000C801002067
:101B60005461736B20353A204920616D20696E20E5
:101B70005365727665722031202E204D7920707267
:101B8000696F726974792069732025640A0D0000F9
:101B90007C010020E40000205461736B20353A2062
:101BA000756E6C6F636B20536572766572203120A1
:101BB0002E204D79207072696F7269747920697373
:101BC0002025640A0D0000005461736B20353A2013
:101BD0004D79207072696F7269747920697320255C
:101BE000640A0D005461736B2035206661696C6571
:101BF0006420746F206C6F636B205365727665721E
:101C00002031200A0D0000005461736B20353A200A
:101C1000427965210A0D000010B5FEF7F1FCFEF7D0
:101C200060FC27A000F0A0FDFEF70EFC2FA000F046
:101C30009BFD34A000F098FDFFF7AFFE08B100BF98
:101C4000FEE735A000F090FDFFF71BFD08B100BFD7
:101C5000FEE736A000F088FDFFF762FC08B100BF88
:101C6000FEE737A000F080FDFFF73EFB08B100BFA4
:101C7000FEE738A000F078FDFFF71AFA08B100BFC0
:101C8000FEE739A000F070FD3EA000F06DFDFFF70B
:101C9000BBF908B100BFFEE73EA000F065FDFFF70D
:101CA000DDF908B100BFFEE73EA000F05DFDFEF7E4
:101CB000C0FC40A000F058FD00BE002010BD000098
:101CC0000A0D526176656E4F532044656D6F205644
:101CD000657273696F6E20322020284D6172203149
:101CE0002C2032303135290A0D000000496E69740C
:101CF00069616C697A696E67207468726561647382
:101D00000A0D00006372656174696E672074687201
:101D1000656164350A0D00006372656174696E6700
:101D200020746872656164340A0D00006372656135
:101D300074696E6720746872656164330A0D00000F
:101D40006372656174696E6720746872656164327C
:101D50000A0D00006372656174696E6720746872B1
:101D6000656164310A0D0000496E697469616C69CE
:101D70007A696E672073656D6170686F7265730A4A
:101D80000D0000006372656174696E672073656D94
:101D9000310A0D006372656174696E672073656D49
:101DA000320A0D005374617274206B65726E656C3B
:101DB0000A0D000054726F75626C65202D2D207223
:101DC000657475726E65642066726F6D206F734BFB
:101DD00065726E656C537461727428290A0D000077
:101DE0002DE9F04104460D464FF08071496C086EB4
:101DF000804707464FF08071686A49696023224630
:101E00004E693946B047686B84620020BDE8F081B6
:101E100008B5F8480068009008BD0146086870479A
:101E200070B505460C46606B90F8250000F0020086
:101E300010B14FF0FF3070BD606B90F8250000F0DE
:101E4000010008B10020F6E7606B0560606B406838
:101E500020F00100616B4860606B406820F0020078
:101E6000616B4860606B406820F00400616B486003
:101E7000606B406820F00800616B4860606B4068F0
:101E800020F01000616B4860606B406820F020001B
:101E9000616B4860606B406820F04000616B486097
:101EA0000020616B81F824000021606B80F8201015
:101EB0004FF080726068526C916988474FF0807271
:101EC000A06A526C916988474FF08072A069126ACB
:101ED000916E884794F820104FF08073E0691B6A78
:101EE0005A6D90474FF08072E068126A916E884791
:101EF000217D4FF0807320691B6A5A6D9047012045
:101F0000616B81F82500002095E70146486B90F849
:101F1000250000F0020010B14FF0FF307047486B11
:101F200090F8250008B90020F8E700204A6B82F8F5
:101F3000250000BFF2E770B505460C46606B90F8CF
:101F4000250000F0010010B94FF0FF3070BD606B4C
:101F50000079C0F3400010B16FF00100F6E7606B4C
:101F600090F8250000F0200010B16FF00100EDE7BF
:101F700025B1012D16D0022D24D116E0606B90F80A
:101F8000250000F0020008B90020DFE74FF0807163
:101F9000606A49698A6C502190470120616B81F821
:101FA000250012E06FF00300D0E7606B90F8250089
:101FB00000F0020008B10020C8E70320616B81F83F
:101FC000250002E06FF00300C0E700BF0020BDE77E
:101FD0002DE9F04106460D46144606B11DB96FF0D5
:101FE0000400BDE8F081606B90F8250000F004006B
:101FF00010B94FF0FF30F4E7606B90F8250000F067
:10200000200010B16FF00100EBE7606B90F8250045
:1020100040F02000616B81F82500606B4661606BC9
:10202000C5600021606BC16122E072B6636BD3F8BA
:102030001CC00CF10103676BFB61636B5B6913F8F8
:102040000C104FF08073606A5B691A68904762B643
:102050004FF08071496C086E804740F6B831B0FB94
:10206000F1F74FF08070406CD0F888103846884700
:102070002800A5F10105D8D1606B90F8250020F06B
:102080002000616B81F825000020AAE710B5034607
:1020900003B111B96FF0040010BD506B90F825002A
:1020A00000F0040010B94FF0FF30F5E7506B0079F5
:1020B000C0F3400010B16FF00100EDE7506B4068D5
:1020C00020F00200801C546B6060506B8160506B8C
:1020D000406820F01000546B6060506B406820F046
:1020E0002000546B6060506B406820F00800546B17
:1020F0006060506B406820F04000546B6060506B33
:1021000003610024506B8461506B90F82400022816
:1021100004D0506B90F82400032800D100BF9068D1
:10212000806C0020B8E72DE9F04180460E46174646
:102130001C46B8F1000F01D006B11FB96FF00400C2
:10214000BDE8F081606B90F8250000F0040010B944
:102150004FF0FF30F4E7606B90F82400022804D0C1
:10216000606B90F82400032815D10321606B80F880
:102170002210224639463046FFF788FF05460DB14A
:102180002846DDE7224639464046FFF721FF05464F
:1021900025B12846D4E74FF0FF30D1E70020CFE744
:1021A0000146486BC06970470146486B80697047BB
:1021B0002DE9F04106460F461446606B90F8250065
:1021C00000F0020018B94FF0FF30BDE8F081F0B226
:1021D00015284CD010DC05282AD006DC012813D0A5
:1021E000022813D003287ED119E0102829D0112805
:1021F00079D12BE0742B00001638052873D2DFE864
:1022000000F04B4D4F59610001256FE02078C0F37D
:10221000400010B96FF00600D7E7022566E020788D
:10222000C0F3800010B96FF00600CEE703255DE033
:102230002078C0F3001010B96FF00600C5E705253F
:1022400054E0606B80F820700020BEE72078C0F377
:10225000001038B14FB9A068406C20F00200A168AE
:10226000486402E04FF0FF30AFE70020ADE747B130
:10227000606B90F8250040F00800616B81F8250044
:1022800008E0606B90F8250020F00800616B81F891
:10229000250000BF002098E7002096E7002094E783
:1022A000606B90F8250020F02000616B81F825001C
:1022B00000208AE7606B406820F00200616B486094
:1022C000002082E7606B406820F00200616B48608C
:1022D000606B90F8250020F02000616B81F82500EC
:1022E000002072E7FFE76FF003006EE700BF606B4E
:1022F0000079C0F3400028B9606B90F8250000F029
:10230000200010B16FF001005FE7A06888B306F409
:10231000403048B1B0F5803F07D0B0F5003F0FD056
:10232000B0F5403F27D116E028E02078C0F3C01078
:1023300010B148F0400802E06FF00B0045E71DE0E7
:102340002088C0F3002010B148F0800802E06FF050
:102350000B003AE712E02078C0F3C01030B12088BB
:10236000C0F3002010B148F0C00803E06FF00B008C
:102370002BE704E002E06FF00B0026E700BF022D20
:1023800001D0032D0DD106F4003010B16FF00C0018
:102390001BE706F48020B0F5802F02D06FF00D000F
:1023A00013E721463846FFF71BFD401C10B96FF0BC
:1023B00007000AE7616B81F824504FF08072606A71
:1023C0005269D1698847606B90F8250040F004009D
:1023D000616B81F825000020F7E60146486B4068F4
:1023E00070470246486B90F8250000F0040010B9D1
:1023F0004FF0FF3070470020FCE708B502469068B8
:10240000D0B1506B90F8250000F00400A0B10B098A
:10241000009863F3000000904B09009863F34100BB
:1024200000908B09009863F3C3000090CB090098DB
:1024300063F3820000900FE0009820F0010000900C
:10244000009820F002000090009820F00800009012
:10245000009820F004000090009808BD70B5044674
:102460000025606B006820B11DB1606B01682846D3
:10247000884770BD08B53048FFF7CFFC009008BD15
:1024800010B504462C492046FFF7CAFC10BD10B514
:102490002948FFF73AFD10BD10B5044626492046ED
:1024A000FFF749FD10BD70B504460D46224A294686
:1024B0002046FFF78DFD70BD70B504460D461E4ADF
:1024C00029462046FFF7E2FD70BD70B504460D4673
:1024D0001646194B324629462046FFF724FE70BDAA
:1024E00010B51548FFF75CFE10BD10B51248FFF798
:1024F0005BFE10BD70B504460D460F4A29462046C6
:10250000FFF756FE70BD08B50B48FFF766FF009059
:1025100008BD10B5044608492046FFF762FF10BD0C
:1025200008B50548FFF769FF009008BD10B50248DF
:10253000FFF794FF10BD0000782B00000648074904
:10254000086070470648006840F47000044908605D
:1025500001480249086070470024F4001802002076
:1025600088ED00E03F4880473F480047FEE7FEE730
:10257000FEE7FEE7FEE7FEE7FEE7FEE7FEE7FEE733
:10258000FEE7FEE7FEE7FEE7FEE7FEE7FEE7FEE723
:10259000FEE7FEE7FEE7FEE7FEE7FEE7FEE7FEE713
:1025A000FEE7FEE7FEE7FEE7FEE7FEE7FEE7FEE703
:1025B000FEE7FEE7FEE7FEE7FEE7FEE7FEE7FEE7F3
:1025C000FEE7FEE7FEE7FEE7FEE7FEE7FEE7FEE7E3
:1025D000FEE7FEE7FEE7FEE7FEE7FEE7FEE7FEE7D3
:1025E000FEE7FEE7FEE7FEE7FEE7FEE7FEE7FEE7C3
:1025F000FEE7FEE7FEE7FEE7FEE7FEE7FEE7FEE7B3
:10260000FEE7FEE7FEE7FEE7FEE7FEE7FEE7FEE7A2
:10261000FEE7FEE7FEE7FEE7FEE7FEE7FEE7FEE792
:10262000FEE7FEE7FEE7FEE7FEE7FEE7FEE7FEE782
:10263000FEE7FEE7FEE7FEE7FEE7FEE7FEE7FEE772
:10264000FEE7FEE7FEE7FEE7FEE7FEE7FEE7FEE762
:10265000FEE7FEE7FEE7000004480549034A054B94
:1026600070470000452500006D0200007016002034
:102670007018002070160020704753EA020C00F01A
:1026800069802DE9F04B4FF00006002B1FBFB3FA15
:1026900083F503FA05F424FA05F65E4012BF1643EB
:1026A000B2FA82F502FA05F4C5F120051EBF22FA3E
:1026B00005FC44EA0C04203556EA044C4FEA144465
:1026C00018BF641C4FF000084FF00009904271EBF6
:1026D000030C39D3002919BFB1FA81F701FA07F6C3
:1026E000B0FA80F700FA07F6C7F120071EBF20FAFC
:1026F00007FC46EA0C062037B6FBF4FCA7EB0507FF
:10270000103F07F01F0BCBF120060CFA0BFB2CFA45
:1027100006F644BFB3460026202FA4BF5E464FF006
:10272000000B5BEA060C08BF4FF0010B19EB0B091D
:10273000ABFB027C48EB0608C01B06FB02CC0BFB84
:1027400003CC71EB0C01C1E70B46024641464846FB
:10275000BDE8F08B13B54FF000004FF00001AFF370
:102760000080BDE81C4070470FB4044910B503AAAF
:10277000029800F077F910BC5DF814FB000000200F
:102780002DE9F0410E460446002020622046E16813
:10279000884730B3252805D0D4E901219047206A25
:1027A000401CF2E7E168204600278847050018D062
:1027B000A5F14100192802D820354FF400673246B0
:1027C000294620462760FDF7ABFD40B1012804D023
:1027D000F61D26F007060836D8E7361DD6E7284648
:1027E000DAE7206ABDE8F08170B50C460546012A9B
:1027F00005D02878800600D5EA69002302E001238D
:1028000005E05B1C934202D2E05C0028F9D1A86984
:10281000E618C01AA861286A184428622846AFF34F
:10282000008004E0D5E9012114F8010B9047B4427F
:10283000F8D32846AFF3008070BD00002DE9F041C9
:102840000646002410687529314616A510D0AFF34E
:102850000080002802DA404213A507E031688A07A9
:1028600001D512A502E0490704D511A5012401E014
:10287000AFF3008000210A2206F1240709E0B0FB33
:10288000F2FCB0FBF2F302FB1C0030307854184627
:10289000491C0028F3D123462A463046BDE8F041C2
:1028A00000F070B8000000002D0000002B000000B8
:1028B0002000000040EA0103024630B59B0710D11A
:1028C0004FF0013400E008C208C91D1B9D4315EA02
:1028D000C41FF8D013F0FF0102F8011B0DD01B0A32
:1028E000F8E711F8013B002B02F8013B05D011F885
:1028F000013B002B02F8013BF3D130BD10B5431C66
:1029000002E010F8011B71B18107FAD14FF00132DA
:1029100002C88C1A8C4314EAC211F9D0C01A0A06F4
:1029200003D0C01E10BDC01A10BD0A0401D0801E05
:1029300010BD0902FCD0401E10BD4FF0000204295A
:10294000C0F0128010F0030C00F0A080CCF1040C59
:10295000BCF1020F18BF00F8012BA8BF20F8022B12
:10296000A1EB0C0100F092B85FEAC17C24BF00F833
:10297000012B00F8012B48BF00F8012B704770476E
:10298000704770472DE9F0470D4699469246044638
:1029900000F124080168880604D5E06921F01001DF
:1029A000216000E00120A84201DD471B00E0002774
:1029B000A1697A1902EB0900081AA0612078C00603
:1029C00002D42046AFF30080002608E0D4E90121BC
:1029D0001AF806009047206A401C761C20624E457B
:1029E000F4DB2078C0060AD52046AFF3008006E06D
:1029F000D4E9012130209047206A401C2062381E13
:102A0000A7F10107F4DC07E0D4E9012118F805007B
:102A10009047206A401C2062281EA5F10105F3DCC6
:102A20002046AFF300802078000602D50220BDE8E2
:102A3000F0870120FBE710B5436913B1AFF30080C5
:102A400001E0FFF7D1FE012010BD127800F1240152
:102A50000A7000224A700122EDE711684FF0FF3240
:102A6000E9E70000074B70B50D467B4400F039F8EC
:102A700004462846FDF7D6FC10B14FF0FF3070BD7C
:102A8000204670BD9DD9FFFF4FF0000200B51346F0
:102A900094469646203922BFA0E80C50A0E80C507E
:102AA000B1F12001BFF4F7AF090728BFA0E80C502F
:102AB00048BF0CC05DF804EB890028BF40F8042B28
:102AC00008BF704748BF20F8022B11F0804F18BF95
:102AD00000F8012B7047000001694A1C0261087868
:102AE000704700B58FB0CDE901310021059105494E
:102AF0007944CDE9031011466846FFF741FE0FB057
:102B000000BD0000E5FFFFFF754600F029F8AE4666
:102B100005006946534620F00700854618B020B5E9
:102B2000FFF79AFDBDE820404FF000064FF0000788
:102B30004FF000084FF0000B21F00701AC46ACE865
:102B4000C009ACE8C009ACE8C009ACE8C0098D46D2
:102B500070470446AFF300802046FDF7F8FB000005
:102B600000487047101600204FF04070E1EE100A48
:102B7000704700000102010201040000001800F08B
:102B800000C00040010400000040004002000000BE
:102B900001000000004000400100000000C00040B3
:102BA000000800F00500000000000000E41500200F
:102BB000111E000075240000812400008F240000F5
:102BC00099240000A7240000B9240000CB240000B1
:102BD000E1240000EB240000F5240000072500009C
:102BE0001325000021250000082C00000000002013
:102BF0001C020000A80200004C2C00001C02002057
:102C000054160000040300000148139C0E242017F2
:102C10000F0746FDFFFFFF2C011308100C4420EBAB
:102C200010541334110C442023134C1360120C4421
:102C3000205B154C138C130C4420BD164C4113B86B
:0C2C4000142420D5190A3EFE501324F481
:04000005000025656D
:00000001FF
